:100000000C94D5340C94D9370C9404380C942F38B4
:100010000C945A380C9485380C94B0380C94DB3816
:100020000C9406390C9406350C9406350C94063560
:100030000C9406350C9406350C9406350C94063554
:100040000C9406350D941E320C9406350C9406352E
:100050000C9406350C9406350D947D4C0C940835A3
:100060000C9406350C9460E70C940BE80C94063560
:100070000C9406350C9406350C9406350C94063514
:100080000C9406350C9406350C9406350C94063504
:100090000C9406350C9406350C9406350C940635F4
:1000A0000C9406350C9406350C9406350C940635E4
:1000B0000C9406350C9406350C9406350C940635D4
:1000C0000C9406350C9406350C9406350C940635C4
:1000D0000C9406350C9406350C9406350C940635B4
:1000E0000C940635503655365A3664366E36E73639
:1000F00078368036883692369C36A636B536BF3688
:10010000E736C936D336DD360B370E37FD360137C5
:1001100007374537123716371C37203724372A3729
:100120002E373237453738373C374037B25B955B2F
:10013000985BB55B9B5B9E5BA15BAD5BA45BBF5BB0
:10014000A75BAA5BBEE4BCE4E0E4DDE4DBE412E52B
:100150000FE50DE56BE539E536E534E593E799E71D
:10016000AAE7B5E7BDE7D2E7C1E7D2E7C5E7C9E748
:10017000D2E7CFE701F806F80BF813F818F81DF8E6
:1001800022F827F844F844F82CF844F831F836F807
:100190003FF85FF864F869F871F876F87BF880F852
:1001A00085F8A2F8A2F88AF8A2F88FF894F89DF8DA
:1001B000BDF8C2F8C7F8CFF8D4F8D9F8DEF8E3F8FC
:1001C00000F900F9E8F800F9EDF8F2F8FBF81BF98E
:1001D00020F925F92DF932F937F93CF941F95EF9A1
:1001E0005EF946F95EF94BF950F959F925FA2AFA00
:1001F00035FA40FA4BFA56FA61FA6CFAA0FAA0FA0C
:10020000A0FAA0FA77FABEFAC9FADAFAEBFAFCFA1F
:100210000DFB1EFB2FFB66FB66FB66FB66FB3DFBD7
:1002200085FB91FBA2FBB3FBC4FBD5FBE6FBF7FB15
:100230002FFC2FFC2FFC2FFC05FC4EFC57FC66FC12
:1002400071FC7CFC87FC92FC9CFCCBFCCBFCCBFCCB
:10025000CBFCA4FC05FD36FE0BFD15FD21FD2DFD9F
:1002600044FD54FD36FE64FD36FE74FD36FE85FD0C
:1002700091FDA6FDB2FDF1FDFBFD03FE0FFE1BFE91
:100280002AFE55FEC2FF5EFE6BFE7AFE89FEA3FECD
:10029000B6FEC2FFC9FEC2FFDCFEC2FFF0FE02FFD7
:1002A0001AFF2CFF6EFF7BFF86FF95FFA4FFB6FFB2
:1002B000E1FFD601EAFFF7FFD201CC01C601BE0182
:1002C000D601D001D601C801D601C201FA01D4017C
:1002D000F601C001B801D801E601CE01B201020267
:1002E000B601E001DA01F401FC010402DE01B6010D
:1002F000AE01B601EA01B601B001CA01EE01AC01DE
:100300000002E2010602BA01B401FE01084AD73B2D
:100310003BCE016E84BCBFFDC12F3D6C74319ABDD4
:1003200056833DDA3D00C77F11BED9E4BB4C3E91F8
:100330006BAAAABE000000803F05A84CCDB2D44EE7
:10034000B93836A9020C50B9918688083CA6AAAAE9
:100350002ABE000000803F000D940B020D94C001E6
:100360000D94DD010D9442010D946D020D948502F2
:100370000D9407010D9465020D9431070D94420010
:100380000D94FA000D947C000D948F700D942F0045
:100390000D9468000D94EC010D9415000D9430013E
:1003A0000D9455000D9406000D94A6000D944E0179
:1003B0000D9412010D947B010D94B6160D94B201AB
:1003C0000D9473010D9455020D94CA470D942101AB
:1003D0000D94B3160D94CE010D9466730D94000226
:1003E0000D94BE1E0D9489160D9485010D94B800D0
:1003F0000D94A11E0D948E000D948D010D947C0220
:100400000D944D020D946D010D94A4010D945D02A7
:100410004E414E494E495459494E46CDCCCC3D0AE9
:10042000D7233C17B7D13877CC2B329595E6241FCC
:10043000B14F0A000020410000C84200401C462085
:10044000BCBE4CCA1B0E5AAEC59D7400407A10F358
:100450005A00A0724E18090010A5D4E80000E876F2
:1004600048170000E40B54020000CA9A3B00000049
:10047000E1F505000080969800000040420F000062
:1004800000A08601000000102700000000E8030023
:100490000000006400000000000A000000000001ED
:1004A00000000000002C76D888DC674F0823DFC1ED
:1004B000DFAE59E1B1B796E5E3E453C63AE65199A8
:1004C0007696E8E6C28426EB898C9B62ED407C6FD1
:1004D000FCEFBC9C9F40F2BAA56FA5F490055A2A88
:1004E000F75C936B6CF9676DC11BFCE0E40D47FE94
:1004F000F520E6B500D0ED902E0300943577050089
:1005000080841E080000204E0A000000C80C33330F
:1005100033330F986E12831141EF8D2114893BE61E
:100520005516CFFEE6DB18D1844B381BF77C1D90A7
:100530001DA4BBE424203284725E228100C9F12410
:10054000ECA1E53D2700000A0B02090C0D0E08077F
:100550000304010000000000000000000000000093
:10056000000000000000000000000000000000008B
:100570000012111000000000000000000000000048
:100580000000000000000000000000010210202018
:1005900008081020401020408002010201080402D7
:1005A000010102040810204080804020100804024D
:1005B00001800402018040201008040201080402A6
:1005C00001010204081020408001020408102040AC
:1005D0008005050505070508080808020202020A49
:1005E0000A080804040404010101010101010103D6
:1005F00003030303030303040707070C0C0C0C0C91
:100600000C0C0C0202020206060606060606060B83
:100610000B0B0B0B0B0B0B000020002300260029FB
:10062000002C002F00320000010000030106010928
:100630000100002200250028002B002E003100348C
:100640000002010000050108010B01000021002447
:100650000027002A002D00300033000101000004B3
:100660000107010A0101060D00FE09016602D620FC
:10067000FFFE0BFE0AFE0D0060221969808080805B
:100680008080800080183363A0A0A003576750507B
:10069000F850F850500259692078A0A0702828F02E
:1006A0002002596948A85010204050A8900258686C
:1006B00040A0A040A0989068281363808080113BE0
:1006C0006B2040408080808080404020113B6B80C8
:1006D0004040202020202040408006556520A87002
:1006E000A8200455652020F8202011336360408045
:1006F000065161F811336340E0400259690808105F
:10070000102040408080025969205088888888885D
:1007100050200259692060A02020202020F8025992
:10072000697088880810204080F8025969F808101C
:10073000207008088870025969101030505090F8E5
:100740001010025969F88080B0C8080888700259F2
:100750006970888080F088888870025969F808106C
:10076000102020404040025969708888887088882D
:1007700088700259697088888878080888701138EC
:100780006840E040000040E04011386840E0400030
:100790000060408002596908102040804020100805
:1007A000045464F80000F8025969804020100810D1
:1007B000204080025969708888081020200020029B
:1007C000596970888898A8A8B08078025969205023
:1007D000888888F8888888025969F04848487048AD
:1007E0004848F00259697088808080808088700253
:1007F0005969F048484848484848F0025969F88023
:100800008080F0808080F8025969F8808080F080D4
:100810008080800259697088808080988888700202
:10082000596988888888F888888888123969E040FA
:10083000404040404040E00259693810101010100C
:10084000109060025969888890A0C0A090888802A2
:1008500059698080808080808080F802596988880A
:10086000D8A8A88888888802596988C8C8A8A8987C
:100870009888880259697088888888888888700272
:100880005969F0888888F080808080015A6A708871
:100890008888888888A87008025969F0888888F054
:1008A000A0908888025969708880807008088870D4
:1008B000025969F820202020202020200259698830
:1008C00088888888888888700259698888888850CC
:1008D0005050202002596988888888A8A8A8A85064
:1008E0000259698888505020505088880259698878
:1008F0008850502020202020025969F8081010202C
:10090000404080F8113B6BE0808080808080808058
:1009100080E0025969808040402010100808113B97
:100920006BE0202020202020202020E0085363209E
:100930005088015161F82A22628040025666700890
:1009400078889868025969808080F088888888F063
:100950000256667088808088700259690808087895
:1009600088888888780256667088F880887002596E
:100970006930484040F040404040005868708888E6
:100980008878088870025969808080B0C888888813
:10099000881238684000C040404040E0004A6A1079
:1009A0000030101010109090600259698080809083
:1009B000A0C0A09088123969C040404040404040EB
:1009C000E0025666D0A8A8A8A888025666B0C888D3
:1009D000888888025666708888888870005868F011
:1009E000888888F0808080005868788888887808AF
:1009F0000808025666B0C8808080800256667088FB
:100A0000601088700258684040F040404048300212
:100A10005666888888889868025666888888505004
:100A2000200256668888A8A8A850025666885020DA
:100A3000205088005868888888986808887002560E
:100A400066F810204080F8015B6B1820202020C041
:100A5000202020201822196980808080808080805A
:100A600080015B6BC0202020201820202020C0089F
:100A7000536348A890FFFFFFFFFFFFFFFFFFFFFF4B
:100A8000FFFFFFFFFFFFFFFFFFFFFFFFFFFFFFFF76
:100A9000FFFFFFFFFFFF0D006022196980008080CB
:100AA00080808080800358682070A8A0A0A8702053
:100AB00002596930484040E0404048B003566688DB
:100AC000705050708802596988885050F820F8207A
:100AD00020221969808080800080808080124A6A8C
:100AE000609080609090601090601A3262A0A003C5
:100AF00059697088A8D8C8D8A88870045767700842
:100B000078887800F80356662850A0A0502804532F
:100B100063F80808163161E00359697088E8D8D88D
:100B2000E8D888700A5161F81744646090906003B7
:100B300057672020F8202000F807356540A02040A6
:100B4000E007356540A04020C02A2262408000585E
:100B5000688888888898E8808002596978E8E8E899
:100B6000E868282828262161C020226240800735B5
:100B70006540C04040E0045767708888887000F87E
:100B8000035666A050282850A0025A6A40C0404030
:100B9000E00818283808025A6A40C04040E010288F
:100BA000081038025A6A40A04020A0481828380887
:100BB000025969200020204080888870025A6A40CB
:100BC000200020508888F88888025A6A1020002067
:100BD000508888F88888025A6A30480020508888EF
:100BE000F88888025A6A28500020508888F8888837
:100BF000025A6A50500020508888F88888025A6A41
:100C000020502020508888F8888802596958A0A070
:100C1000A0B0E0A0A0B8005B6B708880808080806E
:100C200088702040025A6A402000F88080F080805E
:100C3000F8025A6A102000F88080F08080F8025A8A
:100C40006A304800F88080F08080F8025A6A50507C
:100C500000F88080F08080F8123A6A804000E0401E
:100C600040404040E0123A6A204000E040404040AE
:100C700040E0124A6A609000E04040404040E0128C
:100C80003A6AA0A000E04040404040E0025969F0CC
:100C9000484848E8484848F0025A6A28500088887E
:100CA000C8A8988888025A6A402000708888888876
:100CB0008870025A6A1020007088888888887002BC
:100CC0005A6A30480070888888888870025A6A2872
:100CD000500070888888888870025A6A5050007066
:100CE0008888888888700355658850205088015B03
:100CF0006B08709898A8A8A8C8C87080025A6A4063
:100D0000200088888888888870025A6A10200088A5
:100D1000888888888870025A6A304800888888885D
:100D2000888870025A6A505000888888888888703D
:100D3000025A6A1020008888502020202002596919
:100D400080F0888888F0808080025969609090A047
:100D5000A0908888B002596940200070087888986F
:100D600068025969102000700878889868025969EB
:100D700030480070087888986802596928500070D7
:100D800008788898680259695050007008788898E7
:100D900068025A6A304830007008788898680256AD
:100DA00066702870A0A8500058687088808088708D
:100DB00020400259694020007088F88088700259EC
:100DC000691020007088F8808870025969304800E6
:100DD0007088F88088700259695050007088F880D7
:100DE0008870123969804000C040404040E01239AC
:100DF00069204000C040404040E0124969609000D6
:100E0000C040404040E0123969A0A000C0404040CE
:100E100040E0025A6A50206010708888888870020A
:100E20005969285000B0C8888888880259694020CC
:100E3000007088888888700259691020007088883E
:100E400088887002596930480070888888887002E4
:100E500059692850007088888888700259695050F4
:100E600000708888888870035767202000F8002069
:100E700020015868087098A8A8C870800259694075
:100E8000200088888888986802596910200088881E
:100E900088889868025969304800888888889868E6
:100EA000025969505000888888889868005B6B10E8
:100EB00020008888889868088870005A6A8080B006
:100EC000C88888C8B08080005B6B505000888888D4
:100ED000986808887001050700FE0500FB01F220F4
:100EE000FFFE05FE05FE0200400215258080800001
:100EF00080053242A0A002556550F850F8500146D6
:100F0000562070C030E02002556590102040480205
:100F10005565608068906805122280800225354002
:100F2000808080400225358040404080043343A0CB
:100F300040A003334340E04001223240800431416D
:100F4000E0021121800255650810204080024555BD
:100F50006090909060022535C04040404002455569
:100F6000E0106080F0024555E0106010E002455549
:100F70002060A0F020024555F080E010E0024555C9
:100F80006080E09060024555F010204040024555D9
:100F9000609060906002455560907010600313236C
:100FA000800080021424800080800235452040802B
:100FB0004020033343E000E002354580402040807C
:100FC000024555E0106000400255657088B8A87071
:100FD000024555609090F090024555E090E090E019
:100FE0000235456080808060024555E0909090E039
:100FF000023545E080E080E0023545E080E0808019
:101000000245557080B090700245559090F09090D8
:10101000023545E0404040E00245553010109060F8
:1010200002455590A0C0A09002354580808080E0A8
:1010300002556588D8A8888802455590D0B0909010
:101040000245556090909060024555E09090E08098
:10105000014656609090906010024555E09090E0F7
:101060009002455570806010E0023545E0404040F8
:101070004002455590909090600245559090A0A0F8
:101080004002556588A8A8A85002455590906090E8
:10109000900245559090701060023545E0204080E8
:1010A000E0022535C0808080C00255658040201058
:1010B00008022535C0404040C005324240A00241F0
:1010C00051F00522328040024454709090700245E5
:1010D0005580E09090E00234446080806002455585
:1010E000107090907002445460B0C060023545208A
:1010F00040E04040004656709090701060024555A8
:1011000080E0909090021525800080808000273735
:10111000400040404040800245558090A0E0900251
:1011200015258080808080025464F0A8A8A802441D
:1011300054E090909002445460909060004656E0D5
:101140009090E080800046567090907010100234AD
:1011500044A0C0808002445470C030E00235454055
:10116000E04040200244549090907002445490908B
:10117000A040025464A8A85050023444A04040A0AB
:10118000004656909090701060024454F02040F059
:101190000235456040804060021525808080808057
:1011A000023545C0402040C005425250A0FFFFFF1D
:1011B000FFFFFFFFFFFFFFFFFFFFFFFFFFFFFFFF3F
:1011C000FFFFFFFFFFFFFFFFFFFFFFFFFFFF02002B
:1011D00040FFFFFFFFFFFFFFFFFFFFFFFFFFFFFFDE
:1011E000FFFFFFFFFFFFFFFFFFFFFFFFFFFFFFFF0F
:1011F000FFFFFFFFFFFFFFFFFFFFFFFFFFFFFFFFFF
:10120000FFFFFFFFFFFFFFFFFFFFFFFFFFFFFFFFEE
:10121000FFFFFFFFFFFFFFFFFFFFFFFFFFFFFFFFDE
:10122000FFFFFFFFFFFFFFFFFFFFFFFFFFFFFFFFCE
:1012300001050800FF060121023520FFFF07FF0618
:10124000FF0900502216568080808000801533539D
:10125000A0A0A00257575050F850F85050025757CE
:101260002070A07028702013355580A040A0200267
:10127000475740A0A040A0A0502513538080801263
:101280002656408080808040122656804040404054
:10129000800245559060F060900255552020F8205E
:1012A00020113353604080044151F011335340E02A
:1012B0004002465610102040808012365640A0A0B2
:1012C000A0A04012365640C0404040E00246566062
:1012D00090106080F0024656F02060109060024648
:1012E000562060A0F02020024656F080E01090606A
:1012F0000246566080E0909060024656F010202032
:101300004040024656609060909060024656609061
:1013100090701060122555C0C000C0C011365660D4
:101320006000604080123656204080804020034399
:1013300053F000F01236568040202040801236567E
:1013400040A020400040015858304898A8A890403C
:1013500030024656609090F09090024656E090E041
:101360009090E0024656609080809060024656E081
:1013700090909090E0024656F080E08080F0024627
:1013800056F080E0808080024656609080B0906089
:101390000246569090F0909090123656E0404040B1
:1013A00040E002465670202020A04002465690A001
:1013B000C0A0A0900246568080808080F0024656F1
:1013C00090F0F090909002465690D0F0B0B090021D
:1013D0004656609090909060024656E09090E08073
:1013E00080014757609090D0B06010024656E09060
:1013F00090E09090024656609040209060123656E1
:10140000E0404040404002465690909090906002EC
:101410004656909090906060024656909090F0F002
:101420009002465690906060909002565688885080
:10143000202020024656F010204080F0123656E060
:1014400080808080E0024656808040201010123656
:1014500056E020202020E016325240A0014151F0F9
:10146000162252804002445470909070024656807A
:1014700080E09090E0123454608080600246561004
:10148000107090907002445460B0C06002465620C4
:101490005040E04040014555609070106002465653
:1014A0008080E09090901236564000C04040E0119D
:1014B00037572000202020A040024656808090E030
:1014C0009090123656C040404040E0025454D0A89C
:1014D000A8A8024454E09090900244546090906018
:1014E000014555E090E080800145557090701010E6
:1014F000024454A0D0808012345460C020C0024600
:10150000564040E040502002445490909070123475
:1015100054A0A0A04002545488A8A850024454905B
:101520006060900145559090709060024454F020A6
:1015300040F0024757304020C020403022165680ED
:101540008080808080024757C02040304020C00605
:10155000425250A0FFFFFFFFFFFFFFFFFFFFFFFF13
:10156000FFFFFFFFFFFFFFFFFFFFFFFFFFFFFFFF8B
:10157000FFFFFFFFFF090050221656800080808089
:10158000800146562070A0A070200246562050E0F0
:101590004050A002555588705070880256568850A9
:1015A000F820F82022175780808000808080024732
:1015B000577080E0907010E0173151A002565670BD
:1015C000A8C8C8A87014355560A06000E003435354
:1015D00050A050123353E02020143151E0025656EF
:1015E00070E8D8E8D870173151E015335340A04067
:1015F00012355540E04000E014355540A02040E051
:10160000143555C020C020C01622524080014555D7
:10161000909090E08002565678E8E86828282411D7
:101620005180112252408014355540C04040E01492
:10163000355540A04000E0034353A050A002475757
:10164000808080A060F0200247578080A0D01020CA
:101650007002475780408060A0F02012365640004C
:101660004080A04002475740206090F09090024791
:101670005720406090F0909002475760906090F043
:10168000909002475750A06090F09090024757907A
:10169000006090F0909002475760906090F09090BA
:1016A00002465670A0A0F0A0B0014757609080801D
:1016B0009060400247574020F080E080F00247579A
:1016C0002040F080E080F00247576090F080E0809A
:1016D000F00247579000F080E080F01237578040CA
:1016E000E0404040E01237572040E0404040E012E8
:1016F000375740A0E0404040E0123757A000E0409C
:101700004040E00256567048E8484870024757503B
:10171000A090D0B090900247574020609090906089
:101720000247572040609090906002475760906059
:101730009090906002475750A06090909060024750
:101740005790006090909060123353A040A00246E2
:101750005670B0B0D0D0E0024757402090909090A3
:1017600060024757204090909090600247576090E9
:1017700090909090600247579000909090906002F7
:1017800057571020885020202002465680E0909025
:10179000E0800246566090A0A090A00247574020EB
:1017A0000070909070024757204000709090700237
:1017B00047572050007090907002475750A000701B
:1017C000909070024656500070909070024757609B
:1017D000906070909070025454F068B07811355554
:1017E000608080604002475740200060B0C06002C7
:1017F000475720400060B0C06002475760900060CB
:10180000B0C060024656500060B0C06012375780CA
:101810004000C04040E0123757204000C04040E048
:1018200012375740A000C04040E0123656A000C01A
:101830004040E0024757A040A01070906002475718
:1018400050A000E090909002475740200060909098
:1018500060024757204000609090600247576090B8
:10186000006090906002475750A000609090600226
:1018700046569000609090601235554000E0004060
:1018800002445470B0D0E00247574020009090903E
:101890007002475720400090909070024757609028
:1018A0000090909070024656900090909070014881
:1018B0005820400090907090600147578080E090E1
:1018C000E080800147579000909070906044697369
:1018D00061626C65205374657070657273004D3879
:1018E00034004175746F2043616C69627261746584
:1018F000004D313137205374617274696E67204135
:1019000075746F2D43616C6962726174696F6E0AE0
:1019100054300A4732380A4731320A4D31313720C4
:1019200043616C6962726174696E672E2E2E0A477C
:101930003432350A4D3530300A4D3131372043616C
:101940006C6962726174696F6E2064617461207386
:1019500061766564004175746F20486F6D6500475E
:101960003238004D6F76652041786973004D6169AA
:101970006E00457874727564657220004175746FED
:1019800020486F6D6500473238004D6F7665205AEC
:10199000004D6F76652059004D6F76652058004DDB
:1019A0006F74696F6E00457874727564657220009B
:1019B0004D6F76652025736D6D00004D6F76652047
:1019C000302E316D6D004D6F766520316D6D004D9F
:1019D0006F76652031306D6D004D6F7665204178F2
:1019E000697300486F74656E6420746F6F20636F55
:1019F0006C6400457874727564657220004D6F7672
:101A000065205A004D6F76652059004D6F76652030
:101A100058004D6F7665205A004D6F76652059004D
:101A20004D6F76652058004E6F204D6564696100EA
:101A30005072696E742066726F6D204D65646961C5
:101A4000004368616E6765204D65646961004D32D1
:101A5000310041626F7574205072696E7465720056
:101A60004368616E67652046696C616D656E7400E0
:101A70004368616E67652046696C616D656E7400D0
:101A80004D36303020423000436F6E6669677572A4
:101A90006174696F6E0054656D7065726174757202
:101AA00065004D6F74696F6E00526573756D6520CA
:101AB0005072696E740054756E650053746F7020B7
:101AC0005072696E74005061757365205072696E52
:101AD0007400496E666F2053637265656E005374BF
:101AE0006F70004261636B0053746F7020507269B5
:101AF0006E74003F00536D6F6F7468696E670053BA
:101B00006D6F6F7468696E67005A005A005900590A
:101B10000058005800436F7272656374696F6E00FD
:101B2000436F7272656374696F6E004D61696E0018
:101B300050726F6265205A204F666673657400426A
:101B400061627973746570205900426162797374BF
:101B50006570205800466C6F7700466C6F770046C2
:101B6000616E2053706565640046616E2053706538
:101B700065640042656400426564004E6F7A7A6C69
:101B800065004E6F7A7A6C6500537065656400532A
:101B900070656564004D61696E00426162797374BD
:101BA0006570205900426162797374657020580035
:101BB000536E346B3300496E766164657273004214
:101BC0007269636B6F7574004D61696E005761696E
:101BD0007420666F720066696C616D656E7420704A
:101BE000757267650000506C656173652077616987
:101BF000742E00507265737320427574746F6E009A
:101C0000746F20726573756D65207072696E7400F3
:101C10005761697420666F720066696C616D656EEC
:101C200074206C6F616400496E736572742066691C
:101C30006C616D656E7400616E64207072657373A3
:101C400020627574746F6E00746F20636F6E7469B8
:101C50006E756500507265737320627574746F6E73
:101C600000746F2068656174206E6F7A7A6C65000D
:101C70004E6F7A7A6C652068656174696E67005092
:101C80006C6561736520776169742E2E2E00576133
:101C9000697420666F720066696C616D656E742090
:101CA000756E6C6F6164005761697420666F7200B5
:101CB00066696C616D656E74206368616E6765004E
:101CC000746F207374617274005061726B696E6717
:101CD0002E2E2E004368616E67696E672046696C20
:101CE000616D656E7400554E4C4F41442046494C21
:101CF000414D454E54004C4F41442046494C414DC6
:101D0000454E540020204E6F7A7A6C653A200020B0
:101D100000456E642066696C616D656E7420636851
:101D2000616E6765005075726765206D6F72650042
:101D3000004368616E67652046696C616D656E740D
:101D400000556E6C6F61642046696C616D656E74E0
:101D5000004C6F61642046696C616D656E74005063
:101D600072656865617420437573746F6D0050729D
:101D7000656865617420437573746F6D005072659A
:101D800068656174204142530050726568656174F2
:101D900020504C41004261636B004D363030204290
:101DA0003020542564004D373032203B2564004DEF
:101DB00037303220542564004D37303120542564AB
:101DC0000050726F6265205A204F6666736574001A
:101DD0004D6F76696E672E2E2E0053746570706994
:101DE0006E67204D6F6465004879627269642054A3
:101DF00068726573686F6C640044726976657220FE
:101E000043757272656E7400436F6E74726F6C000E
:101E1000486F74656E64004F6666004F6E00486FD1
:101E200074656E64005A004F6666004F6E005A007B
:101E300059004F6666004F6E00590058004F6666A5
:101E4000004F6E005800544D43204472697665720D
:101E50007300537465616C746843686F7020456EDD
:101E600061626C656400486F74656E6400486F74ED
:101E7000656E64005A005A00590059005800580015
:101E8000544D43204472697665727300486F7465DF
:101E90006E6400486F74656E64005A005A00590001
:101EA000590058005800544D4320447269766572B9
:101EB000730046696C616D656E740054656D706584
:101EC00072617475726500544D4320447269766581
:101ED0007273004261636B6C617368005374657068
:101EE000732F6D6D004A65726B00416363656C65AD
:101EF000726174696F6E0056656C6F636974790006
:101F0000436F6E66696775726174696F6E004573C1
:101F1000746570732F6D6D004573746570732F6DEC
:101F20006D005A73746570732F6D6D005A7374650C
:101F300070732F6D6D005973746570732F6D6D0024
:101F40005973746570732F6D6D0058737465707379
:101F50002F6D6D005873746570732F6D6D00416443
:101F600076616E6365642053657474696E6773008F
:101F700056652D4A65726B0056652D4A65726B0079
:101F8000567A2D4A65726B00567A2D4A65726B003F
:101F900056792D4A65726B0056792D4A65726B0031
:101FA00056782D4A65726B0056782D4A65726B0023
:101FB000416476616E6365642053657474696E670D
:101FC0007300416D6178204500416D6178204500C6
:101FD000416D6178205A00416D6178205A00416D51
:101FE0006178205900416D6178205900416D617818
:101FF000205800416D6178205800412D547261765F
:10200000656C00412D54726176656C00412D5265FE
:10201000747261637400412D52657472616374005F
:10202000416363656C00416363656C004164766184
:102030006E6365642053657474696E6773005654EB
:10204000726176204D696E005654726176204D693A
:102050006E00566D696E00566D696E00566D617842
:10206000204500566D6178204500566D6178205AF4
:1020700000566D6178205A00566D617820590056DF
:102080006D6178205900566D6178205800566D6159
:1020900078205800416476616E63656420536574EE
:1020A00074696E677300200820466163740020081D
:1020B0002046616374002008204D617800200820CC
:1020C0004D6178002008204D696E002008204D6980
:1020D0006E004175746F74656D70004F6666004FD9
:1020E0006E004175746F74656D7000416476616E49
:1020F0006365642053657474696E6773004C6F6127
:1021000064206D6D004C6F6164206D6D00556E6CC8
:102110006F6164206D6D00556E6C6F6164206D6D34
:1021200000416476616E6365204B00416476616EA8
:102130006365204B00416476616E6365642053657E
:102140007474696E677300526573746F726520668C
:1021500061696C73616665004C6F616420536574DE
:1021600074696E67730053746F726520536574747D
:10217000696E67730050726F6265205A204F666601
:1021800073657400416476616E63656420536574A1
:1021900074696E6773004D61696E005072696E7488
:1021A0002066726F6D204D65646961005072696EC2
:1021B000742066726F6D204D6564696100022E2E79
:1021C000004D61696E005072696E740043616E6308
:1021D000656C005374617274205072696E742000D3
:1021E0003F0047616D6573005072696E74657220BF
:1021F0005374617473004669726D7761726520561D
:10220000657273696F6E004D61696E003E20004516
:102210007874727564656420546F74616C3A00253B
:102220006C642E25696D003E20004C6F6E676573EF
:1022300074204A6F622054696D653A003E20005454
:102240006F74616C205072696E742074696D653AA8
:1022500000436F6D706C657465643A20005072695C
:102260006E7420436F756E743A20002569730025E3
:10227000696D20256973002569682025696D202511
:10228000697300256964202569682025696D20250A
:1022900069730025697920256964202569682025EE
:1022A000696D2025697300436F6F6C646F776E00F2
:1022B00046616E2053706565640046616E20537000
:1022C0006565640042656400426564004E6F7A7A19
:1022D0006C65004E6F7A7A6C65004D61696E006FB7
:1022E0006F6F00000047414D45204F564552001F7B
:1022F000C07FF0DDD8FFF87FF0444024800000313B
:1023000080000024804440107CFEFEFE04000E008D
:102310000E007FC0FFE0FFE0FFE0FFE006000F00DF
:102320001F8036C03FC009001680294006000F00FC
:102330001F8036C03FC016802040108010400880AB
:102340001FC037607FF05FD050500D801040489024
:102350005FD077707FF01FC0104020200F007FE01B
:10236000FFF0E670FFF0198036C0C0300F007FE04C
:10237000FFF0E670FFF0198036C019804572723A9E
:10238000207574663820666F6E74206E6F742069D5
:102390006E697469616C697A65642E004572723A7F
:1023A000207574663820666F6E74206E6F742069B5
:1023B0006E697469616C697A65642E004572723A5F
:1023C000207574663820666F6E74206E6F74206995
:1023D0006E697469616C697A65642E002020202022
:1023E00000252020002520002531640025326400CE
:1023F00025336400253464002535640025366400E7
:102400000000007E006000600060F87ECC60CC6060
:10241000CC60F860CC00CC00CC00CC000000000008
:102420000000FE7F0E702664724E7A5E324C82414E
:10243000324C7A5E724E26640E70FE7F0000000001
:102440000000FE7F0E70C663C24382411A58BA5D17
:102450001A588241C243C6630E70FE7F000000001E
:1024600000008808880810112022202210118808F6
:1024700088081011000000000000000000000000AB
:102480000000202210118808880810112022202224
:10249000101188080000000000000000000000008B
:1024A000000000000000000000000000000000002C
:1024B000000000000000FE7FFE7F066000000000BC
:1024C00000000000F00FF81FF81FF81FF00FF00FCA
:1024D000F81FF81FF81FE007C0038001000000008C
:1024E0003048483025753A25303275002530327530
:1024F0003A2530327500506C656173652052657302
:102500006574005052494E5445522048414C544540
:1025100044007F80FFC0FFC0FFC07F807F80FFC07E
:10252000FFC0FFC03F001E000C00FFFFFF0E000EAB
:10253000000E000E000E000E000E000E007FC03FC9
:10254000801F000E00040004000E001F003F807F6B
:10255000C00E000E000E000E000E000E000E000E4B
:102560000000FE0003FF800783C00E01C00E00E0E4
:102570001C00E07F00E03E00E01C00E00800E000FE
:1025800000E00001C00E01C00F078007FF0001FC42
:102590000001FC0007FF000F07800E01C00001C012
:1025A0000000E00800E01C00E03E00E07F00E01CCE
:1025B00000E00E00E00E01C00783C003FF8000FEB4
:1025C00000687474703A2F2F6D61726C696E667753
:1025D0002E6F726700322E302E302E3136330000CF
:1025E000060900FE06018902FE20FFFE07FE06FE28
:1025F00000000006000701060606020080808080B9
:102600000080030303060103A0A0A005070706003E
:10261000FF5050F850F850500509090600FE207090
:10262000A8A07028A870200608080600FF40A84847
:1026300010204854080507070600FF609090609836
:1026400090680103030602038080800207070602E8
:10265000FF408080808080400207070602FF8040A4
:1026600040404040800505050600008850F850882D
:102670000505050600002020F820200204040602BB
:10268000FEC0404080050101060002F80202020679
:102690000200C0C004060606010010102040808021
:1026A00004060606010060909090906003060606FE
:1026B000010040C0404040E0040606060100609072
:1026C000102040F0040606060100F020601010E023
:1026D00005060606000010305090F81004060606A5
:1026E0000100F080E01010E00406060601006080A2
:1026F000E0909060040606060100F01010204040B3
:1027000004060606010060906090906004060606CC
:102710000100609090701060020505060200C0C0C4
:1027200000C0C00207070602FEC0C000C0404080D3
:102730000505050600001860806018050303060003
:1027400001F800F8050505060000C0300830C00497
:10275000070706010060901060400040050606066D
:1027600000007090A8B0807005060606000020509A
:1027700088F88888050606060000F088F08888F04A
:10278000040606060100609080809060040606063C
:102790000100E090909090E0040606060100F080B1
:1027A000E08080F0040606060100F080E080808072
:1027B000040606060100609080B0906004060606DC
:1027C00001009090F0909090030606060100E04012
:1027D000404040E0050606060000381010109060EA
:1027E00004060606010090A0C0A09090040606060C
:1027F00001008080808080F005060606000088D8F1
:10280000A8A8888804060606010090D0B090909091
:10281000050606060000708888888870040606068B
:102820000100E09090E080800407070601FF6090BF
:1028300090D0B06010040606060100E09090E09091
:102840009004060606010060904020906005060690
:10285000060000F820202020200406060601009033
:102860009090909060040606060100909090F060B1
:10287000600506060600008888A8A8D88805060610
:1028800006000088502020508805060606000088B3
:102890008850202020040606060100F01020408009
:1028A000F0030606060100E080808080E004060652
:1028B000060100808040201010030606060100E09B
:1028C00020202020E0050303060003205088050196
:1028D000010600FEF802020206020480400404041D
:1028E000060100709090700406060601008080E0EA
:1028F0009090E004040406010070808070040606D5
:10290000060100101070909070040404060100602D
:10291000B0C070040606060100205040E0404004AC
:1029200006060601FE60909070106004060606011F
:10293000008080E09090900306060601004000C0F1
:102940004040E00308080601FE200060202020A08F
:10295000400406060601008080A0C0A09003060681
:10296000060100C040404040E0050404060000D0DD
:10297000A8A888040404060100E0909090040404D0
:10298000060100609090600406060601FEE090904B
:10299000E080800406060601FE709090701010041E
:1029A0000404060100A0D080800404040601007025
:1029B000C030E00406060601004040E0405020041C
:1029C0000404060100909090700404040601009035
:1029D00090606005040406000088A8A85004040460
:1029E000060100906060900406060601FE9090903B
:1029F000709060040404060100F02040F003070713
:102A0000060100204040804040200107070602FFE9
:102A1000808080808080800307070601008040401E
:102A20002040408004020206010350A0FFFFFFFF88
:102A3000FFFFFFFFFFFFFFFFFFFFFFFFFFFFFFFFA6
:102A4000FFFFFFFFFFFFFFFFFFFFFFFFFF00000093
:102A500006000701060606020080008080808004D0
:102A600006060601FF2070A0A070200507070600DB
:102A7000FF304840F04040F8050505060000A8502A
:102A80008850A80506060600008850F820F82001A6
:102A900007070602FF808080008080800407070609
:102AA00001FF708060906010E0030101060105A045
:102AB000060707060000788494A49484780305052B
:102AC00006010160A06000E0050505060000285031
:102AD000A05028040303060100F0101004010106B1
:102AE0000102F00607070600007884B4A4A48478E5
:102AF000040101060105F004030306010260906071
:102B00000507070600FF2020F8202000F803050530
:102B100006010140A02040E0030505060101C02098
:102B20004020C0020202060204408004050506019E
:102B3000FF9090B0D08005060606000078E8E868AF
:102B40002828010101060202800202020602FE405C
:102B50008003050506010140C04040E0030505066D
:102B6000010140A04000E0050505060000A0502836
:102B700050A00508080600FF40C040507030781093
:102B80000508080600FF40C04050680810380508D6
:102B9000080600FFC0204030F03078100407070618
:102BA00001002000206080906005070706000040BB
:102BB000202050708888050707060000102020504C
:102BC000708888050707060000205020507088880C
:102BD0000507070600002850205070888805070761
:102BE0000600005000205070888805070706000086
:102BF0002050205070888805060606000078A0F056
:102C0000A0A0B80408080601FE60908080906020B3
:102C1000400407070601004020F080E080F0040730
:102C2000070601002040F080E080F004070706015D
:102C3000002050F080E080F00407070601005000FB
:102C4000F080E080F00307070601008040E040408C
:102C500040E00307070601002040E0404040E00359
:102C6000070706010040A0E0404040E003070706D8
:102C70000100A000E0404040E005060606000070AC
:102C800048E848487004070706010050A090D0B0FB
:102C90009090040707060100402060909090600427
:102CA0000707060100204060909090600407070627
:102CB00001002050609090906004070706010050CA
:102CC000A06090909060040707060100500060909B
:102CD0009090600505050600008850205088040883
:102CE000080601FF1070B0B0D0D0E08004070706DE
:102CF000010040209090909060040707060100209A
:102D0000409090909060040707060100205090903A
:102D1000909060040707060100500090909090602A
:102D20000507070600001020885020202004060612
:102D300006010080E09090E0800406060601006035
:102D400090A0A090A004070706010040200070900A
:102D500090700407070601002040007090907004F6
:102D600007070601002050007090907004070706C6
:102D7000010050A0007090907004060606010050FB
:102D8000007090907004070706010020502070909A
:102D9000907005040406000070A8B07804060606CA
:102DA00001FE70808070204004070706010040206B
:102DB0000060B0C07004070706010020400060B04A
:102DC000C07004070706010020500060B0C0700406
:102DD0000606060100500060B0C070030707060138
:102DE00000804000C04040E003070706010020408B
:102DF00000C04040E003070706010040A000C040BB
:102E000040E0030606060100A000C04040E00407C1
:102E100007060100306010709090600407070601FB
:102E20000050A000E09090900407070601004020A9
:102E30000060909060040707060100204000609049
:102E40009060040707060100205000609090600425
:102E5000070706010050A000609090600406060677
:102E600001005000609090600505050600002000FC
:102E7000F8002004040406010070B0D0E004070745
:102E800006010040200090909070040707060100A2
:102E90002040009090907004070706010020500029
:102EA000909090700406060601005000909090707B
:102EB0000409090601FE2040009090907090600483
:102EC00008080601FE8080E09090E08080040808F9
:102ED0000601FE5000909090709060000C0D00FE76
:102EE00007022603BC017FFE08FE08FE050808064F
:102EF000000040F0C888889878100508080600008F
:102F0000C0F88888888888F8050505060001203003
:102F1000F830200508080600002070F82020202046
:102F2000E00509090600FF2070A8A8B8888870206D
:102F3000050606060001E08CEA8C8A0A05090906E6
:102F400000FFF8A88888888888A8F8050A0A06007B
:102F5000FE205050505088A8A88870030303060034
:102F60000340A040FFFFFFFFFFFFFFFFFFFFFFFF4A
:102F7000FFFFFFFFFFFFFFFFFFFF0000000605FF51
:102F80000107070602008080808080008003030321
:102F9000060105A0A0A005060606000050F8505046
:102FA000F8500509090600FF2070A8A07028A87035
:102FB00020050707060000C8C8102040989805079C
:102FC0000706000040A0A040A89068010303060285
:102FD000058080800309090601FF20404080808031
:102FE0004040200309090601FF8040402020204086
:102FF000408005070706000020A8702070A8200563
:1030000005050600012020F820200203030601FF29
:10301000C04080050101060003F80202020601001B
:10302000C0C00507070600000810102040408005BA
:103030000707060000708898A8C88870030707066D
:10304000010040C040404040E00507070600007016
:103050008808102040F8050707060000F80810301F
:1030600008887005070706000010305090F810100F
:10307000050707060000F880F008088870050707B4
:10308000060000304080F0888870050707060000C1
:10309000F808101020202005070706000070888817
:1030A0007088887005070706000070888878081007
:1030B00060020505060100C0C000C0C00206060689
:1030C00001FFC0C000C0408003050506010120408B
:1030D000804020050303060002F800F803050506FA
:1030E000010180402040800507070600007088101D
:1030F000202000200507070600007088B8A8B880C7
:1031000070050707060000708888F888888805071A
:1031100007060000F04848704848F0050707060019
:103120000070888080808870050707060000F048DE
:1031300048484848F0050707060000F88080F080FE
:1031400080F8050707060000F88080F08080800581
:1031500007070600007088808098887005070706BA
:103160000000888888F8888888030707060100E03F
:103170004040404040E005070706000038101010AE
:103180001090600507070600008890A0C0A09088F6
:10319000050707060000808080808080F80507070B
:1031A00006000088D8A888888888050707060000D8
:1031B0008888C8A89888880507070600007088884E
:1031C00088888870050707060000F08888F08080EE
:1031D0008005070706000070888888A890680507A2
:1031E00007060000F08888F0A09088050707060011
:1031F0000070888070088870050707060000F820B6
:10320000202020202005070706000088888888885D
:1032100088700507070600008888888850502005B8
:10322000070706000088888888A8A85005070706B1
:10323000000088885020508888050707060000880D
:10324000885020202020050707060000F8081020DD
:103250004080F80309090601FFE0808080808080BB
:1032600080E005070706000080404020101008039A
:1032700009090601FFE020202020202020E005038E
:10328000030600052050880501010600FEF803032F
:10329000030601058040200505050600007008783A
:1032A00088780507070600008080F0888888F00588
:1032B000050506000070808088700507070600007D
:1032C000080878888888780505050600007088F069
:1032D0008070050707060000304840E04040400588
:1032E00007070600FE7088888878087005070706BB
:1032F00000008080F0888888880307070601004066
:1033000000C0404040E00409090601FE10003010F2
:10331000101010906005070706000080808890E07C
:103320009088030707060100C04040404040E00588
:103330000505060000D0A8A8A8A8050505060000F8
:10334000B0C88888880505050600007088888870E0
:103350000507070600FEF0888888F08080050707CB
:103360000600FE78888888780808050505060000AC
:10337000B0C880808005050506000078807008F0E0
:103380000507070600002020F82020201805050565
:10339000060000888888986805050506000088886A
:1033A0008850200505050600008888A8A850050556
:1033B0000506000088502050880507070600FE8893
:1033C000888850204080050505060000F810204040
:1033D000F80309090601FF2040404080404040209A
:1033E0000109090602FF8080808080808080800340
:1033F00009090601FF80404040204040408005030D
:103400000306000248A890FF1FFFFFFFFFFFFF60B9
:103410000000000001FF400000000000FF800000ED
:103420000000007F83CF00000C303F87FF80000C3E
:10343000301F867980000C000F8C30C7838C30E7FA
:103440008C30CFC7CC31F38C30DCECEC33B98C3022
:10345000D86C6C33198C30D06C0C33198C30D86C20
:103460000C33198C30DC6C0E3B198C30CF7C079FF1
:10347000198C30C77C038F194000000000000260E7
:103480000000000000061FFFFFFFFFFFF84D323471
:10349000004D323520500A4D3234005072696E743E
:1034A00020506175736564005061757365205072BA
:1034B000696E74005072696E742041626F72746537
:1034C00064004C756C7A426F74204D696E6920728D
:1034D000656164792E005072696E74696E672E2E74
:1034E0002E005072696E7420506175736564004DD2
:1034F000656469612052656D6F766564004D656431
:10350000696120496E736572746564000A003B202E
:10351000454550524F4D20496E6465783A2000551C
:1035200070646174696E67207A6F66667365742073
:10353000696E20454550524F4D3A20003474682042
:1035400070726F626520706F696E742C206469738D
:1035500074616E63652066726F6D20706C616E655C
:103560003A20000000000000000000000000000001
:10357000000000000000000000000000000000004B
:103580000000000000000C000000000000000C0023
:1035900000000000000012000000000000002300F6
:1035A00000000000000021000000000000004C802E
:1035B0000000000000005E8000000000000092405B
:1035C000000000000000A1400000000000012120D8
:1035D0000000000000027F900000000000020010C8
:1035E000000000000007FFF80000000000040008D1
:1035F00000000000000800040000000000080006B1
:1036000000000000001000020000000000301E0159
:103610000000000000207F81000000000041FFE06A
:10362000800000000043FCF08000000000873B7831
:1036300040000000018EDBFC60000000010FEBCCBD
:1036400020000000021FEDB610000000021FDEB6D1
:10365000100000000439CD7F080000000436E0FFB0
:1036600008000000087EC0BB84000000187F005DD9
:1036700086000000107FC0ED82000000203CC07377
:1036800001000000203B337F01000000701BE77E3B
:1036900003800000C81DEEDE04C00000880FDEDCE1
:1036A00004400001240FDF3C092000012607DBF85D
:1036B000192000027203E7F0139000025101FFE0AD
:1036C0002290000489007F802448000904801E00A5
:1036D0004824000BFE400000DFF400100040000012
:1036E0008002001FFFFFFFFFFFFE00000000000040
:1036F00000000000000000000000000000000000CA
:103700000000001022103C3C0E1F0010221004226A
:103710001104001022100822110400102210083C8D
:103720001104001022101022110400102210202277
:103730001104001E1C1E3C3C0E0400000000000092
:103740000000000000000000000000000000000079
:103750000000000000000000000000000000000069
:103760000000000000000000000000000000000059
:103770000000000000000000000000000000000049
:103780000000000000000000000000000000000039
:103790000000000000000000000000000000000029
:1037A00000000C0D00FE07022603BC017FFE08FE90
:1037B00008FE05080806000040F0C88888987810C0
:1037C000050808060000C0F88888888888F805057C
:1037D000050600012030F83020050808060000200A
:1037E00070F820202020E00509090600FF2070A8BD
:1037F000A8B888887020050606060001E08CEA8CCF
:103800008A0A0509090600FFF8A88888888888A818
:10381000F8050A0A0600FE205050505088A8A888D3
:103820007003030306000340A040FFFFFFFFFFFFFC
:10383000FFFFFFFFFFFFFFFFFFFFFFFFFFFFFFFF98
:103840000000000605FF0107070602008080808057
:10385000800080030303060105A0A0A0050606065C
:10386000000050F85050F8500509090600FF20707C
:10387000A8A07028A87020050707060000C8C81077
:103880002040989805070706000040A0A040A89097
:10389000680103030602058080800309090601FF11
:1038A0002040408080804040200309090601FF80BD
:1038B000404020202040408005070706000020A847
:1038C000702070A8200505050600012020F82020A2
:1038D0000203030601FFC04080050101060003F852
:1038E000020202060100C0C005070706000008101A
:1038F0001020404080050707060000708898A8C87F
:10390000887003070706010040C040404040E005C2
:103910000707060000708808102040F80507070612
:103920000000F8081030088870050707060000102E
:10393000305090F81010050707060000F880F008D6
:10394000088870050707060000304080F0888870FE
:10395000050707060000F8081010202020050707BB
:1039600006000070888870888870050707060000C8
:1039700070888878081060020505060100C0C00044
:10398000C0C00206060601FFC0C000C0408003059B
:10399000050601012040804020050303060002F8CF
:1039A00000F8030505060101804020408005070757
:1039B0000600007088102020002005070706000080
:1039C0007088B8A8B880700507070600007088885E
:1039D000F8888888050707060000F04848704848BE
:1039E000F005070706000070888080808870050752
:1039F00007060000F04848484848F0050707060059
:103A000000F88080F08080F8050707060000F88045
:103A100080F080808005070706000070888080980D
:103A20008870050707060000888888F8888888035A
:103A30000707060100E04040404040E00507070658
:103A4000000038101010109060050707060000886D
:103A500090A0C0A0908805070706000080808080A5
:103A60008080F805070706000088D8A8888888881D
:103A70000507070600008888C8A8988888050707F2
:103A8000060000708888888888700507070600008F
:103A9000F08888F08080800507070600007088881D
:103AA00088A89068050707060000F08888F0A090B5
:103AB0008805070706000070888070088870050771
:103AC00007060000F8202020202020050707060018
:103AD000008888888888887005070706000088881D
:103AE000888850502005070706000088888888A825
:103AF000A8500507070600008888502050888805D0
:103B000007070600008888502020202005070706A8
:103B10000000F80810204080F80309090601FFE0C2
:103B200080808080808080E005070706000080405C
:103B300040201010080309090601FFE02020202082
:103B4000202020E005030306000520508805010120
:103B50000600FEF803030306010580402005050565
:103B60000600007008788878050707060000808046
:103B7000F0888888F0050505060000708080887050
:103B80000507070600000808788888887805050575
:103B90000600007088F080700507070600003048B6
:103BA00040E04040400507070600FE70888888789E
:103BB00008700507070600008080F0888888880361
:103BC00007070601004000C0404040E00409090624
:103BD00001FE10003010101010906005070706005D
:103BE0000080808890E09088030707060100C040AD
:103BF00040404040E0050505060000D0A8A8A8A860
:103C0000050505060000B0C888888805050506007A
:103C10000070888888700507070600FEF08888888D
:103C2000F080800507070600FE78888888780808F5
:103C3000050505060000B0C8808080050505060062
:103C40000078807008F00507070600002020F820A3
:103C50002020180505050600008888889868050555
:103C600005060000888888502005050506000088A4
:103C700088A8A85005050506000088502050880532
:103C800007070600FE888888502040800505050645
:103C90000000F8102040F80309090601FF20404009
:103CA0004080404040200109090602FF808080805A
:103CB00080808080800309090601FF804040402009
:103CC0004040408005030306000248A890FF436C73
:103CD00069636B20746F20526573756D652E2E2E8F
:103CE000004D31343520533C696E6465783E206F59
:103CF0007574206F662072616E67652028302D31E3
:103D0000290A0042656420436F6F6C696E672E2E2E
:103D10002E004265642048656174696E672E2E2E00
:103D2000006F6B00504944204175746F74756E6567
:103D3000206661696C656421204261642065787445
:103D40007275646572206E756D6265720A006275C7
:103D500073793A2070617573656420666F722069AB
:103D60006E7075740A00627573793A2070617573AC
:103D7000656420666F7220757365720A00627573E0
:103D8000793A2070726F63657373696E670A004DCC
:103D90003131372050726F626520737563636573CC
:103DA0007366756C0020496E76616C696420657875
:103DB0007472756465722000220A00556E6B6E6F16
:103DC000776E20636F6D6D616E643A2022004361EF
:103DD000703A004348414D4245525F54454D50456D
:103DE000524154555245004D4F54494F4E5F4D4F2F
:103DF00044455300544845524D414C5F50524F5436
:103E0000454354494F4E004155544F5245504F522F
:103E1000545F53445F5354415455530050524F4DD7
:103E200050545F535550504F525400454D455247E2
:103E3000454E43595F50415253455200434153450B
:103E40005F4C494748545F4252494748544E455396
:103E50005300544F47474C455F4C49474854530023
:103E6000534F4654574152455F504F5745520042B9
:103E700055494C445F50455243454E54004C4556BD
:103E8000454C494E475F44415441005A5F50524FA0
:103E90004245004155544F4C4556454C00505249FF
:103EA0004E545F4A4F420050524F475245535300C1
:103EB0004155544F5245504F52545F54454D500058
:103EC000564F4C554D455452494300454550524F6D
:103ED0004D0042494E4152595F46494C455F54524C
:103EE000414E534645520053455249414C5F584F4D
:103EF0004E5F584F4646004649524D574152455F26
:103F00004E414D453A4D61726C696E20322E302E15
:103F1000302E313633202847697468756229205362
:103F20004F555243455F434F44455F55524C3A68A5
:103F3000747470733A2F2F636F64652E616C6570B3
:103F4000686F626A656374732E636F6D2F64696650
:103F5000667573696F6E2F4D41524C494E20505219
:103F60004F544F434F4C5F56455253494F4E3A3191
:103F70002E30204D414348494E455F545950453AF3
:103F80004C756C7A426F74204D696E69204C4344C5
:103F90002045585452554445525F434F554E543A6C
:103FA0003120555549443A62363866663332322DEF
:103FB000333332382D343534332D626439332D6246
:103FC00062386438656230633839310A002F2F2037
:103FD000004D313133205300204500205A00205934
:103FE00000204D393220580020466C6F773A20006F
:103FF000205400205200416363656C6572617469EE
:104000006F6E3A20500043290A0061626C6564209B
:10401000286D696E2074656D702000646973006599
:104020006E00436F6C6420657874727564657320EC
:104030006172652000496E76616C696420657874F0
:1040400072756465720A0020643A0020693A0020A3
:10405000703A0020643A0020693A0020703A004E1D
:104060006F7A7A6C6520546970204F757465722080
:1040700044696D656E73696F6E733A0A00205A0069
:1040800020506F736974696F6E616C204572726F36
:10409000723A0A002020546F703A200020204672A5
:1040A0006F6E743A200020204C6566743A200042FE
:1040B00061636B6C6173683A0A00205A0043656E55
:1040C0007465723A0A00202046726F6E743A2000BE
:1040D00020204C6566743A20002020546F703A20EE
:1040E0000053696465733A0A0020284E6F74207982
:1040F0006574206D656173757265642900202041C7
:10410000766572616765206D65617375726564209F
:104110006261636B6C61736820286D6D293A0020C1
:1041200020536D6F6F7468696E6720286D6D293A32
:10413000202020202020202020202020202020207F
:1041400020530020204261636B6C617368204469D6
:104150007374616E636520286D6D293A20202020DC
:104160002020202000202846312E30203D2066755A
:104170006C6C2C2046302E30203D206E6F6E6529F1
:104180000A002020436F7272656374696F6E20416C
:104190006D6F756E742F466164652D6F75743A206E
:1041A0002020202046006163746976653A0A006920
:1041B0006E004261636B6C61736820436F7272655D
:1041C0006374696F6E2000446F6E65207361766959
:1041D0006E672066696C652E0A0053544F50504537
:1041E000442E20005072696E7465722073746F7073
:1041F0007065642064756520746F206572726F72DB
:10420000732E2046697820746865206572726F721B
:1042100020616E6420757365204D39393920746FC3
:1042200020726573746172742E202854656D7065F8
:104230007261747572652069732072657365742E7E
:1042400020536574206974206166746572207265FC
:104250007374617274696E67290A004E6F20436837
:1042600065636B73756D2077697468206C696E6522
:10427000206E756D6265722C204C617374204C69E0
:104280006E653A20004E6F20436865636B73756DF1
:104290002077697468206C696E65206E756D626543
:1042A000722C204C617374204C696E653A20006357
:1042B0006865636B73756D206D69736D6174636898
:1042C0002C204C617374204C696E653A20004C6957
:1042D0006E65204E756D626572206973206E6F7415
:1042E000204C617374204C696E65204E756D62655B
:1042F000722B312C204C617374204C696E653A200E
:10430000004D31313000526573656E643A200020F3
:1043100042002050006F6B00220A00656E717565C7
:104320007565696E672022005344207265616420C0
:104330006572726F720A00446F6E65207072696EEA
:1043400074696E672066696C650A004D32390045F4
:1043500043484F00494E464F004552524F5253007A
:1043600044525952554E00434F4D4D554E494341CD
:1043700054494F4E006F6666004F435443594360A3
:1043800043674344454255473A004E6F204D6F7690
:10439000652E00205A00205900580020204D6178D9
:1043A0003A2000205A00205900580020204D696E04
:1043B0003A2000536F667420656E6473746F707377
:1043C0003A20004C756C7A426F74204D696E6920FA
:1043D0004C4344204F46462E004D6163726F20745B
:1043E0006F6F206C6F6E672E0A004D313137204899
:1043F0006F7420656E642068656174696E672E2E27
:104400002E0A4D31303420533137300A47323820AC
:104410004F310A4D31313720576970696E67206E10
:104420006F7A7A6C650A54300A4731205831313539
:104430002059313734205A31302046343030300A58
:104440004D31303920523137300A4731205A310A44
:104450004D3131340A473120583131352059313707
:10446000340A47312058343520593137340A47311E
:10447000205831313520593137340A4731205834EA
:104480003520593137340A473120583131352059D8
:104490003137340A47312058343520593137340AFE
:1044A0004731205831313520593137340A473120CE
:1044B00058343520593137340A4731205831313595
:1044C00020593137340A4731205834352059313793
:1044D000340A4731205831313520593137340A47B1
:1044E000312058343520593137340A4731205A3178
:1044F000350A4D3430300A4D31303620533235359F
:104500000A473020583020593136384D3130392063
:10451000523136300A4D3130370073707265616444
:104520004379636C6500737465616C746843686F8C
:10453000700020647269766572206D6F64653A0957
:10454000007370726561644379636C6500737465B0
:10455000616C746843686F7000206472697665727C
:10456000206D6F64653A0900737072656164437908
:10457000636C6500737465616C746843686F700088
:1045800020647269766572206D6F64653A09007304
:1045900070726561644379636C6500737465616C06
:1045A000746843686F700020647269766572206D6C
:1045B0006F64653A090020737465616C74684368C0
:1045C0006F70206D61782073706565643A200020FB
:1045D000737465616C746843686F70206D617820D6
:1045E00073706565643A200020737465616C74684B
:1045F00043686F70206D61782073706565643A2040
:104600000020737465616C746843686F70206D611D
:10461000782073706565643A200020707265776158
:10462000726E20666C616720636C65617265640AF6
:1046300000207072657761726E20666C616720631E
:104640006C65617265640A00207072657761726ED4
:1046500020666C616720636C65617265640A002086
:104660007072657761726E20666C616720636C653D
:10467000617265640A002074656D7065726174759D
:104680007265207072657761726E207472696767F7
:10469000657265643A20002074656D70657261749E
:1046A000757265207072657761726E2074726967C9
:1046B00067657265643A20002074656D706572618B
:1046C00074757265207072657761726E207472699C
:1046D0006767657265643A20002074656D70657265
:1046E0006174757265207072657761726E20747284
:1046F000696767657265643A20002064726976654F
:10470000722063757272656E743A2000206472695B
:104710007665722063757272656E743A200020644B
:1047200072697665722063757272656E743A2000E4
:10473000206472697665722063757272656E743A70
:10474000200047323800416476616E6365204B3D3E
:10475000003F4B2076616C7565206F7574206F6625
:104760002072616E67652028302D3130292E0A00B5
:104770005072696E742074696D653A200050726FD2
:104780006265205A204F66667365743A20003F5A6E
:10479000206F7574206F662072616E676520282D0A
:1047A0003220746F2035290A00205A3A20002059FF
:1047B0003A200042656420583A2000456E64206625
:1047C000696C65206C6973740A00426567696E20C4
:1047D00066696C65206C6973740A00437572726552
:1047E0006E742066696C653A2000536C6565702EA6
:1047F0002E2E0047322F4733206261642070617291
:10480000616D65746572730A0050726F6265205A3B
:10481000204F66667365743A20000A0A4265642078
:104820004C6576656C20436F7272656374696F6E58
:10483000204D61747269783A00202B000A436F7230
:1048400072656374656420426564204865696768C1
:10485000742076732E2042656420546F706F6C6FE5
:1048600067793A0A00202B000A426564204865698E
:1048700067687420546F706F6772617068793A0A64
:104880002020202B2D2D2D204241434B202D2D2B40
:104890000A2020207C2020202020202020202020D2
:1048A0007C0A204C207C20202020282B292020201E
:1048B000207C20520A2045207C20202020202020FF
:1048C000202020207C20490A2046207C20282D29D9
:1048D000204E20282B29207C20470A2054207C2091
:1048E000202020202020202020207C20480A20205A
:1048F000207C20202020282D29202020207C2054AE
:104900000A2020207C202020202020202020202061
:104910007C0A2020204F2D2D2046524F4E54202D12
:104920002D2B0A2028302C30290A000A4D65616E93
:10493000206F662073616D706C656420706F696EA6
:1049400074733A200020643A200020623A20004527
:10495000716E20636F656666696369656E74733A2C
:1049600020613A200050726F62696E6720506F6953
:104970006E742025692F2569002E0A002F005072C1
:104980006F62696E67206D65736820706F696E7401
:104990002000202844525952554E290047323920D0
:1049A0004175746F20426564204C6576656C696E54
:1049B00067003F20284C2C522C462C4229206F7532
:1049C00074206F6620626F756E64732E0A003F500C
:1049D000726F626520706F696E7473202859292088
:1049E000696D706C61757369626C652028322D3257
:1049F000292E0A003F50726F626520706F696E74D5
:104A0000732028582920696D706C61757369626C18
:104A1000652028322D32292E0A003F28562965723A
:104A2000626F7365206C6576656C20696D706C6172
:104A3000757369626C652028302D34292E0A004276
:104A40006564204C6576656C696E67200046616917
:104A50006C656420746F20656E61626C65204265D0
:104A600064204C6576656C696E670A004265642057
:104A70004C6576656C20436F7272656374696F6E06
:104A8000204D61747269783A00454550524F4D206F
:104A90004F4B0A004732385859002020506C616E45
:104AA0006E657242756666657242797465733A2006
:104AB000002046726565204D656D6F72793A200061
:104AC000436F6D70696C65643A20536570203138AE
:104AD00020323031390A00207C20417574686F72B1
:104AE0003A2028416C657068204F626A6563747370
:104AF00020496E632E2C204C756C7A426F742047CF
:104B00006974205265706F7369746F7279290A0035
:104B1000536570203138203230313931353A3231F5
:104B20003A353100204C61737420557064617465AE
:104B3000643A2000322E302E302E3136330A004DAA
:104B400061726C696E0020536F66747761726520C4
:104B500052657365740A00205761746368646F67F7
:104B60002052657365740A002042726F776E206F61
:104B700075742052657365740A00204578746572F7
:104B80006E616C2052657365740A00506F776572B0
:104B900055700A0073746172740A004B494C4C459D
:104BA000442E20005072696E7465722068616C74C6
:104BB00065642E206B696C6C28292063616C6C65C0
:104BC00064210A004B494C4C206361757365642075
:104BD0006279204B494C4C20627574746F6E2F7053
:104BE000696E0A004B494C4C206361757365642003
:104BF000627920746F6F206D75636820696E6163E0
:104C0000746976652074696D65202D2063757272F4
:104C1000656E7420636F6D6D616E643A20004D3176
:104C200032310A4730205A31300A47323820583062
:104C30002059300A4731320A4D313039205231364D
:104C4000300A4D3430300A4D3131372050726F62A6
:104C5000696E67206265640070726F62655F72657D
:104C600077697065004175746F6C6576656C206658
:104C700061696C6564004D31313720426564206C98
:104C80006576656C696E67206661696C65642E0A7D
:104C90004730205A31300A47302045300A4D3330F2
:104CA000302050323520533838300A4D33303020E0
:104CB0005035302053300A4D3330302050323520BB
:104CC000533838300A4D333030205035302053308F
:104CD0000A4D3330302050323520533838300A47AF
:104CE000342053310070726F62655F6661696C6574
:104CF000640050726F7465637465642050696E0A55
:104D00000025311D0C2924301C0B3927232F1B0AA9
:104D10000743222B1A42043803FF36040806060014
:104D2000014572726F722077726974696E672074C0
:104D30006F20454550524F4D210A0066616C7365E6
:104D40000074727565004F4646004F4E00656368FB
:104D50006F3A004572726F723A0050726573732039
:104D6000627574746F6E20286F72204D313038294F
:104D700020746F2068656174206E6F7A7A6C650AA2
:104D800000507265737320627574746F6E20286FA3
:104D900072204D3130382920746F20726573756D23
:104DA000650A00496E736572742066696C616D6591
:104DB0006E7420616E642070726573732062757406
:104DC000746F6E20286F72204D313038290A004DE3
:104DD0003630303A20546F6F20436F6C6400486F58
:104DE00074656E6420746F6F20636F6C640A004892
:104DF0006F74656E6420746F6F20636F6C640A005B
:104E0000496E736572742066696C616D656E74209D
:104E1000616E6420707265737320627574746F6E56
:104E200020286F72204D313038290A004C4F57002E
:104E300048494748004F4B004572726F723A204113
:104E40006C6C200020636F6E6E656374696F6E2EEC
:104E50002E2E200054657374696E6720004C4F57E6
:104E60000048494748004F4B004572726F723A2024
:104E7000416C6C200020636F6E6E656374696F6EA9
:104E80002E2E2E200054657374696E6720004C4FDF
:104E9000570048494748004F4B004572726F723ABD
:104EA00020416C6C200020636F6E6E656374696FC7
:104EB0006E2E2E2E200054657374696E6720004C90
:104EC0004F570048494748004F4B004572726F7278
:104ED0003A20416C6C200020636F6E6E65637469CC
:104EE0006F6E2E2E2E200054657374696E6720003D
:104EF000544D4320434F4E4E454354494F4E204559
:104F000052524F52004452565F5354415455530924
:104F10000050574D5F5343414C45090050574D4396
:104F20004F4E460900434F4F4C434F4E46090043F6
:104F3000484F50434F4E46090054484947480909D5
:104F40000054434F4F4C5448525309005450574D4E
:104F500054485253090054535445500909005450C1
:104F60004F574552444F574E0900494F494E090982
:104F700000475354415409090049484F4C445F4984
:104F800052554E090047434F4E4609090009000992
:104F90002042616420726573706F6E736521000931
:104FA0002042616420726573706F6E736521000921
:104FB0002042616420726573706F6E736521000911
:104FC0002042616420726573706F6E7365210030DA
:104FD0003D2E33323500313D2E3138006D61780081
:104FE0002F3331002F3331002F333100303D2E333A
:104FF000323500313D2E3138006D6178002F33316C
:10500000002F3331002F333100303D2E3332350045
:10501000313D2E3138006D6178002F3331002F3350
:1050200031002F333100303D2E33323500313D2EEB
:105030003138006D6178002F3331002F3331002F6C
:1050400033310044726976657220726567697374E2
:105050006572733A0A006F7409006F747077090003
:105060007332676109007332676209006F6C61090E
:10507000006F6C6209007374737409006673616376
:1050800074697665090073675F726573756C740087
:105090007374616C6C677561726409004452565395
:1050A0005441545553005374616C6C67756172645C
:1050B0002074687273002D737461727409006879CA
:1050C00073746572657369730A2D656E6409006295
:1050D0006C616E6B2074696D65006F666620746923
:1050E0006D65004F54207072657761726E20686143
:1050F000730A6265656E20747269676765726564BC
:10510000004F54207072657761726E005B6D6D2F79
:10511000735D090070776D0A7468726573686F6CEF
:105120006400747374657009006D7374657073093D
:1051300000737465616C746843686F7000767365A2
:105140006E7365090050574D207363616C650043B1
:10515000532061637475616C00486F6C64206375E3
:105160007272656E740052756E2063757272656E30
:1051700074004D41582063757272656E7400524D13
:10518000532063757272656E740053657420637585
:105190007272656E7400456E61626C656409000927
:1051A00000617869733A70776D5F7363616C652F26
:1051B000637572725F7363616C652F6D6563685FA1
:1051C0006C6F61647C666C6167737C7761726E631F
:1051D0006F756E740A00447269766572206572722A
:1051E0006F7200636F696C2073686F7274206369FB
:1051F00072637569740A006F76657274656D7065A7
:105200007261747572650A00206472697665722035
:105210006572726F722064657465637465643A20A8
:105220003078006D41290A00206472697665722029
:105230006F76657274656D706572617475726520E4
:105240007761726E696E67212028003A20006D41F7
:10525000290A0020647269766572206F766572741F
:10526000656D7065726174757265207761726E69C3
:105270006E67212028003A20006D41290A00206431
:105280007269766572206F76657274656D7065728D
:105290006174757265207761726E696E672120286E
:1052A000003A20006D41290A002064726976657217
:1052B000206F76657274656D706572617475726564
:1052C000207761726E696E67212028003A200020E5
:1052D00063757272656E742064656372656173656F
:1052E0006420746F20002063757272656E74206490
:1052F000656372656173656420746F200020637557
:105300007272656E74206465637265617365642092
:10531000746F20002063757272656E74206465631B
:1053200072656173656420746F20002575642025A3
:105330003032753A253032750063616E63656C00FA
:10534000726573756D656400726573756D65007067
:10535000617573656400706F7765726F6666002FA4
:105360002F616374696F6E3A003078004D313137C8
:10537000004D33310043616E6E6F7420656E74654D
:1053800072207375626469723A20002E0A006F7091
:10539000656E206661696C65642C2046696C653AAF
:1053A00020006175746F25632E67006572726F72DD
:1053B0002077726974696E6720746F2066696C6506
:1053C0000A004E6F74205344207072696E74696EC7
:1053D000670A005344207072696E74696E672062B8
:1053E00079746520002E0A0044656C6574696F6EDF
:1053F000206661696C65642C2046696C653A200002
:1054000046696C652064656C657465643A00577222
:105410006974696E6720746F2066696C653A200054
:105420002E0A006F70656E206661696C65642C20C1
:1054300046696C653A20002E0A006F70656E206622
:1054400061696C65642C2046696C653A2000466988
:105450006C652073656C65637465640A002053692C
:105460007A653A200046696C65206F70656E6564E8
:105470003A20002066696C653A20006672657368A0
:1054800000646F696E67004E6F772000454E4420C0
:10549000535542524F5554494E450A002220706FD1
:1054A00073002220706172656E743A220053554277
:1054B000524F5554494E452043414C4C2074617223
:1054C0006765743A2200747279696E6720746F2080
:1054D00063616C6C207375622D67636F6465206611
:1054E000696C6573207769746820746F6F206D61D3
:1054F0006E79206C6576656C732E204D4158206C5A
:105500006576656C2069733A310A004D3234004D7E
:1055100032332025730053442063617264206F6B23
:105520000A006F70656E526F6F74206661696C65FA
:10553000640A00766F6C756D652E696E69742066FD
:1055400061696C65640A00534420696E6974206661
:1055500061696C0A00286E6F2066696C65290043DA
:10556000616E6E6F74206F70656E20737562646912
:105570007220007C3C3E5E2B3D3F2F5B5D3B2C2A26
:10558000225C004175746F6C6576656C206661699C
:105590006C65640A004175746F6C6576656C206695
:1055A00061696C656400205A3A200020593A200055
:1055B00042656420583A2000205A3A0020593A00A7
:1055C00020436F756E7420583A00C23100001C26CB
:1055D0000000F4190000D80F0000EB080000C00420
:1055E0000000750200004001000024F4D43050C3D4
:1055F0008E20C2A24017828B7011127A910D816C9D
:10560000D90AA861E108C7586607615143061E4BD5
:105610005D05C145A7041A411104093D980371397C
:1056200031034036DB0265339102D4305402802EC0
:105630001D02632CEE01752AC501B028A0011027B8
:1056400081018F2564012B244B01E0223401AC2120
:105650001F018D200D01801FFC00841EED00971D91
:10566000DF00B81CD200E61BC600201BBC00641A79
:10567000B200B219A8000A19A0006A189900D1173F
:10568000910040178B00B516840031167E00B315CB
:1056900079003A157300C7146F0058146A00EE13AE
:1056A00066008813630025135E00C7125B006C124E
:1056B000570015125400C111510070114F002111F3
:1056C0004B00D61049008D104700461044000210D0
:1056D0004200C00F4000800F3E00420F3C00060F0A
:1056E0003B00CB0E3800930E37005C0E3500270EC2
:1056F0003400F30D3200C10D3100900D3000600D0B
:105700002E00320D2D00050D2C00D90C2B00AE0CF7
:105710002900850C29005C0C2700350C27000E0C95
:105720002600E80B2400C40B2400A00B23007D0BF3
:1057300023005A0B2100390B2100180B2000F80A16
:105740001F00D90A1E00BB0A1E009D0A1D00800A08
:105750001D00630A1C00470A1B002C0A1B00110ACB
:105760001A00F7091A00DD091900C4091900AB096C
:105770001900920917007B091800630917004C09EA
:10578000160036091600200916000A091500F5084A
:105790001500E0081400CC081400B8081400A40890
:1057A0001400900813007D0812006B0813005808BD
:1057B00012004608120034081100230811001208D4
:1057C000110001081100F0071000E0071000D007D9
:1057D0001000C0071000B0070F00A10710009107CC
:1057E0000E0083070F0074070F0065070E005707B0
:1057F0000E0049070E003B070D002E070E00200784
:105800000D0013070D0006070D00F9060C00ED064C
:105810000D00E0060C00D4060C00C8060C00BC0607
:105820000C00B0060C00A4060B0099060C008D06B7
:105830000B0082060B0077060B006C060B0061065E
:105840000A0057060B004C060A0042060A003806FA
:105850000A002E060A0024060A001A060A0010068C
:10586000090007060A00FD050900F4050900EB051B
:105870000900E2050900D9050900D0050900C7059E
:105880000900BE050900B5050800AD050800A5051D
:1058900009009C050800940508008C050800840593
:1058A00008007C050800740508006C050700650504
:1058B00008005D050700560508004E05070047056E
:1058C00007004005080038050700310507002A05D4
:1058D0000700230507001C050600160507000F0535
:1058E00007000805060002050700FB040600F50492
:1058F0000700EE040600E8040600E2040700DB04EB
:105900000600D5040600CF040600C9040600C3043F
:105910000600BD040600B7040600B1040500AC048F
:105920000600A6040600A00405009B0406009504DA
:105930000500900406008A04050085040500800423
:1059400006007A04050075040500700405006B0468
:10595000050066040500610405005C0405005704A9
:105960000500520405004D040500480405004304E9
:1059700005003E0404003A04050035040500300427
:1059800004002C04050027040400230405001E0461
:1059900004001A04040016040500110404000D0498
:1059A0000400090405000404040000040400FC03CE
:1059B0000400F8030400F4030400F0030400EC0303
:1059C0000400E8030400E4030400E0030400DC0333
:1059D0000400D8030400D4030400D0030400CC0363
:1059E0000400C8030300C503030024F404D9201BEA
:1059F000C40C5C0E9804C4095F0265077101F405CC
:105A0000F900FB04B30048048700C1036900580390
:105A1000550003034500BE023A00840231005302E0
:105A20002A002902250004022000E4011C00C8010C
:105A30001900AF01170098011400840113007101CF
:105A400010006101100051010E0043010D003601EC
:105A50000B002B010B0020010B00150109000C01AC
:105A6000090003010800FB000800F3000800EB0038
:105A70000700E4000600DE000600D8000600D200A1
:105A80000600CC000500C7000500C2000500BD00EF
:105A90000400B9000400B5000400B1000400AD002A
:105AA0000400A9000400A5000300A20003009F0059
:105AB00004009B000300980003009500020093007F
:105AC0000300900003008D0002008B00030088009B
:105AD00002008600020084000300810002007F00B3
